:020000040800F2
:10000000A00A00202D0200084D1E0008111A000849
:100010002D1D00089D090008B948000800000000D7
:10002000000000000000000000000000112F000888
:10003000C111000800000000D51E0008353A000874
:10004000470200084702000847020008470200086C
:10005000470200084702000847020008470200085C
:10006000470200084702000847020008470200084C
:10007000470200084702000847020008470200083C
:10008000470200084702000847020008470200082C
:1000900075480008470200084702000847020008A8
:1000A000470200084702000847020008470200080C
:1000B00047020008F13F00081D4100084702000800
:1000C00047020008470200084702000847020008EC
:1000D000470200085146000847020008470200088E
:1000E00047020008470200084702000847020008CC
:1000F00047020008470200084702000847020008BC
:1001000047020008470200084702000847020008AB
:10011000470200084702000847020008470200089B
:10012000470200084702000847020008470200088B
:1001300000F002F800F06BF80AA090E8000C82448E
:100140008344AAF10107DA4501D100F060F8AFF26B
:10015000090EBAE80F0013F0010F18BFFB1A43F0A5
:1001600001031847AC6B0000CC6B00000A444FF051
:10017000000C10F8013B13F0070408BF10F8014B06
:100180001D1108BF10F8015B641E05D010F8016B4B
:10019000641E01F8016BF9D113F0080F1EBF10F8AF
:1001A000014BAD1C0C1B09D16D1E58BF01F801CBD2
:1001B000FAD505E014F8016B01F8016B6D1EF9D555
:1001C0009142D6D37047000000230024002500266A
:1001D000103A28BF78C1FBD8520728BF30C148BFAA
:1001E0000B607047642900F09F80752900F09C80A7
:1001F000782900F0D580632900F02982732900F066
:100200002E82002070471FB51FBD10B510BD00F035
:1002100059FA1146FFF7F7FF04F022FF00F077FAD2
:1002200003B4FFF7F2FF03BC04F0ABFE09488047BC
:1002300009480047FEE7FEE7FEE7FEE7FEE7FEE7C8
:10024000FEE7FEE7FEE7FEE704480549054A064BE0
:1002500070470000513D000831010008A004002053
:10026000A00A0020A0060020A00600207047000081
:100270000FB4044910B503AA029800F0F5F910BCB8
:100280005DF814FB1C00002070B504468569006809
:10029000C10601D5302600E02026C00707D070BD7A
:1002A000D4E9012130469047206A401C20626D1E2F
:1002B000F6D570BD70B5044685690078C00707D1D2
:1002C00070BDD4E9012120209047206A401C2062A3
:1002D0006D1EF6D570BD70B50C460546012A05D0D9
:1002E0002878800600D5EA69002302E0012305E0B2
:1002F0005B1C934202D2E05C0028F9D1A869E618A1
:10030000C01AA861286A184428622846FFF7BCFF73
:1003100004E0D5E9012114F8010B9047B442F8D369
:100320002846FFF7C7FF70BD2DE9F04106460024BF
:1003300010687529314616A510D0AFF3008000284B
:1003400002DA404213A507E031688A0701D512A5F9
:1003500002E0490704D511A5012401E0AFF30080B4
:1003600000210A2206F1240709E0B0FBF2FCB0FBF1
:10037000F2F302FB1C00303078541846491C002868
:10038000F3D123462A463046BDE8F04100F0FCB8E0
:10039000000000002D0000002B00000020000000E5
:1003A00070B504460D4621461068AFF300802188E1
:1003B000090502D50F4A7A4402E00E4A7A440E3209
:1003C000002104F1240305E000F00F060009965D0A
:1003D0005E54491C0028F7D120780023000704D57B
:1003E000702D02D009B1022311322046BDE87040C1
:1003F00000F0CAB8B26500002DE9F05F89460446F6
:100400004FF0000ADFF874B1FB44C0F820A020468A
:10041000E1688847002874D0252806D0D4E9012156
:100420009047206A401C2062F1E700265F46204684
:10043000E16888472028054607DB312D05D2781969
:1004400010F8200C08B10643F1E7B00701D526F0FB
:100450000406C4F81CA00027C4F818A02A2D09D04F
:10046000284604F087FD38B304EB8708303DC8F810
:10047000185019E059F8041B204604EB87029161DB
:10048000E1688847012F054618D1E069002820DA85
:1004900026F020061DE0D8F8180000EB800005EBE0
:1004A00040003038C8F818002046E1688847054603
:1004B00004F060FD0028EED1012F0AD02E2D08D1C6
:1004C0002046E16888477F1C0546022F46F020063B
:1004D000C4DBA069002803DA404246F00106A061AF
:1004E000F00701D026F010066C2D0BD0682D09D036
:1004F0004C2D39D06A2D35D0742D35D07A2D33D08E
:1005000016E038E0E1682F4620468847B8420546A5
:1005100009D16C2F26D04FF48060E1680643204655
:100520008847054604E06C2F1AD04FF480700643CC
:100530000DB3A5F14100192802D8203546F4006614
:100540004A462946204626604E46FFF74BFE80B1BC
:1005500001280BD0F61D26F0070000F1080956E728
:100560004020E4E78020D8E70020D6E706F1040920
:100570004DE7284652E7206ABDE8F09F88650000F5
:1005800070477047704770472DE9F0470D46994610
:100590009246044600F124080168880604D5E06903
:1005A00021F01001216000E00120A84201DD471B7D
:1005B00000E00027A1697A1902EB0900081AA0617E
:1005C0002078C00602D42046FFF75EFE002608E031
:1005D000D4E901211AF806009047206A401C761CD5
:1005E00020624E45F4DB2078C0060AD52046FFF78E
:1005F0004BFE06E0D4E9012130209047206A401CE0
:100600002062381EA7F10107F4DC07E0D4E90121DC
:1006100018F805009047206A401C2062281EA5F1AA
:100620000105F3DC2046FFF745FE2078000602D5E1
:100630000220BDE8F0870120FBE710B5436913B144
:10064000AFF3008001E0FFF746FE012010BD1278F5
:1006500000F124010A7000224A700122EDE71168BE
:100660004FF0FF32E9E70000074B70B50D467B44C1
:1006700000F011F80446284600F020F810B14FF0C1
:10068000FF3070BD204670BDD349000001694A1C8F
:1006900002610878704700B58FB0CDE901310021C3
:1006A000059105497944CDE9031011466846FFF7E5
:1006B000A3FE0FB000BD0000E5FFFFFF007B00F0D0
:1006C00080007047754600F029F8AE46050069467F
:1006D000534620F00700854618B020B5FFF7B4FD5B
:1006E000BDE820404FF000064FF000074FF0000833
:1006F0004FF0000B21F00701AC46ACE8C009ACE8B4
:10070000C009ACE8C009ACE8C0098D467047044692
:10071000AFF300802046FFF783FD000000487047DC
:100720003C04002021B1826842F00102826003E0B3
:10073000826822F0010282607047000010B5044612
:100740001248844208D10121401501F0C9FC002162
:10075000601501F0C5FC17E00D48844208D1012165
:10076000001501F0BDFC0021201501F0B9FC0BE0E3
:100770000848844208D10121C80301F0B1FC0021DE
:100780004FF4004001F0ACFC10BD0000002401401B
:1007900000280140003C0140014600208A6802F028
:1007A00004020AB1012000E0002070470146C86C35
:1007B00080B270470246002013680B400BB1012045
:1007C00000E000207047014600208A6802F008021D
:1007D0000AB1012000E000207047000030B5024659
:1007E0000020002350680F4C20400D790C6844EA2B
:1007F00005242043506090680B4C2040D1E90254FE
:100800002C434D7944EA450420439060D06A20F49B
:1008100070000C7C641EE4B2234340EA0350D062B3
:1008200030BD0000FFFEF0FFFDF7F1FFF0B504461C
:100830000D4600200021092D11DDE068A5F10A0612
:1008400006EB4607072606FA07F18843A5F10A06D4
:1008500006EB460603FA06F10843E0600CE0206967
:1008600005EB4507072606FA07F1884305EB450621
:1008700003FA06F108432061072A0FDA606B561E5F
:1008800006EB86071F2606FA07F18843561E06EB7D
:10089000860605FA06F10843606322E00D2A0FDAA6
:1008A000206BD61F06EB86071F2606FA07F1884342
:1008B000D61F06EB860605FA06F10843206310E012
:1008C000E06AA2F10D0606EB86071F2606FA07F17D
:1008D0008843A2F10D0606EB860605FA06F10843E9
:1008E000E062F0BD816841F008018160704721B18C
:1008F000826842F4A002826003E0826822F4A002CF
:1009000082607047816841F0040181607047000097
:1009100000B587B001214FF4027001F0D1FB4FF414
:10092000004001F0A1FB0120ADF8040000208DF88B
:10093000070001A9174800F0FFFC1748FFF7FEFE6B
:10094000002002908DF80C008DF80D004FF460200F
:1009500004900020059001208DF8180002A90E488F
:10096000FFF73CFF01210C48FFF7DCFE0A48FFF7C8
:10097000B9FF00BF0848FFF726FF0028FAD1064854
:10098000FFF7C0FF00BF0448FFF706FF0028FAD1B9
:1009900007B000BD000C01400024014000BFFEE78D
:1009A0007FB506460C464FF6FF7501208DF80A000C
:1009B00000208DF80B008DF80C00284600EA461048
:1009C000ADF80000284600EA4410ADF802002846C1
:1009D00000EA4510ADF80400284600EA4510ADF8DD
:1009E00006000020ADF8080001208DF80D006846D3
:1009F00000F002F87FBD000010B50021837A0122CB
:100A000002FA03F13D4A126842F001023B4B1A60C0
:100A10003A4A1C3212688A43384B1C331A60027BF4
:100A2000CAB9364A0C3212688A43344B0C331A6006
:100A30004288C38842EA0343304A4032847A42F80B
:100A400034300288838842EA03432C4A4032847A55
:100A500002EBC4025360027B012A19D1274A0C32EF
:100A600012680A43254B0C331A604288038842EA15
:100A70000343224A4032847A42F83430C288838861
:100A800042EA03431D4A4032847A02EBC4025360B7
:100A9000C27A3AB9194A121D12688A43174B1B1DB4
:100AA0001A6006E0154A121D12680A43134B1B1DFB
:100AB0001A60028932B9114A143212688A430F4B04
:100AC00014331A600289012A06D10C4A14321268C2
:100AD0000A430A4B14331A60427B012A06D1074AA3
:100AE0001C3212680A43054B1C331A60034A126811
:100AF00022F00102014B1A6010BD000000660040A8
:100B00001AB143690B43436102E043698B4343617C
:100B1000704730B5024600200023146824F0020418
:100B20001460146844F00104146000E05B1C546815
:100B300004F001041CB94FF6FF74A342F6D15468C7
:100B400004F001040CB900206CE08C79012C04D174
:100B5000146844F08004146003E0146824F08004F6
:100B60001460CC79012C04D1146844F04004146062
:100B700003E0146824F0400414600C7A012C04D1C2
:100B8000146844F02004146003E0146824F0200486
:100B900014604C7A012C04D1146844F010041460E1
:100BA00003E0146824F0100414608C7A012C04D142
:100BB000146844F00804146003E0146824F0080486
:100BC0001460CC7A012C04D1146844F0040414603D
:100BD00003E0146824F0040414608C78A407CD7832
:100BE00044EA05640D7944EA05444D7944EA055424
:100BF0000D886D1E2C43D461146824F00104146028
:100C0000002300E05B1C546804F001041CB14FF6A3
:100C1000FF74A342F6D1546804F001040CB1002023
:100C200000E0012030BD000038B5142001F0F7FCD1
:100C3000372812D027480178502004F021F82548A1
:100C40008178512004F01CF822484178522004F0A9
:100C500017F83721142004F013F8502001F0DFFCBE
:100C60001C490870512001F0DAFC1A4988705220A2
:100C700001F0D5FC1749487008460078092819D2B8
:100C8000DFE800F005080A0C0E10121416004FF4ED
:100C9000C87410E0C8240EE064240CE028240AE0A4
:100CA000142408E0102406E0082404E0042402E0F0
:100CB000022400E000BF00BF0020234608220721D5
:100CC000009000F009F803494878C821FFF768FE52
:100CD00038BD0000040100202DE9F04186B0044633
:100CE0000D4616461F46DDF830800121092001F02F
:100CF000E7F90121480601F0C3F901214FF4EA1098
:100D000000F0D8FB4FF40070ADF8140003208DF80C
:100D1000160018208DF8170005A9214800F00CFBDB
:100D20004FF48070ADF8140048208DF8170005A925
:100D30001B4800F001FB00208DF80E008DF80F001D
:100D40008DF8100001208DF8110000208DF81200A0
:100D50008DF813008DF80A808DF80B408DF80C602B
:100D60008DF80D50ADF8087002A90E48FFF7D1FEBE
:100D7000012202210B48FFF7C3FE14208DF8040066
:100D800001208DF8050000208DF8060001208DF867
:100D9000070001A801F05CF8002006B0BDE8F08172
:100DA000000C01400064004010B500F5D87303EB5F
:100DB00001131B6803F004031372137A53B900F58F
:100DC000D87303EB01131B6840F2FF7404EA53531A
:100DD000136009E000F5D87303EB01131B686FF093
:100DE000604404EAD303536000F5D87303EB0113A6
:100DF0001B6803F00203537200F5D87303EB011371
:100E00005B6803F00F03937200F5D87303EB0113D3
:100E10005B681B0AD37400F5D87303EB01139B685E
:100E2000D37200F5D87303EB01139B681C0A14738B
:100E300000F5D87303EB01139B681C0C547300F589
:100E4000D87303EB01139B681B0E937300F5D873E3
:100E500003EB0113DB68D37300F5D87303EB0113C5
:100E6000DB681C0A147400F5D87303EB0113DB680C
:100E70001C0C547400F5D87303EB0113DB681B0ED4
:100E8000937421B9C36843F02003C36003E003698E
:100E900043F02003036110BD10B5024600209368A3
:100EA00003F08063B3F1806F00D110E0936803F02A
:100EB0000063B3F1006F01D1012008E0936803F0F3
:100EC0008053B3F1805F01D1022000E004200428A8
:100ED00074D002F5C07303EB00131B6803F0010428
:100EE00002F5C07303EB00131C600B7A7BB94B7ADD
:100EF0000C8843EA445302F5C07404EB00142468E0
:100F0000234302F5C07404EB0014236010E00B7A55
:100F10004C6843EAC4034C7A234302F5C07404EBE3
:100F200000142468234302F5C07404EB001423600A
:100F30008B7A03F00F038B7202F5C07303EB00137F
:100F40005B6823F00F0402F5C07303EB00135C60D1
:100F500002F5C07303EB00135B688C7A234302F540
:100F6000C07404EB001463608B7B1C064B7B44EA6B
:100F700003440B7B44EA0323CC7A234302F5C07479
:100F800004EB0014A3608B7C1C064B7C44EA0344F6
:100F90000B7C44EA0323CC7B234302F5C07404EBAF
:100FA0000014E36002F5C07303EB00131B6843F009
:100FB000010402F5C07303EB00131C6010BD0000B8
:100FC00010B50246002321B1012907D002290FD113
:100FD00009E090681D4C00EA04030BE090681C4C8B
:100FE00000EA040306E090681A4C00EA040301E0FA
:100FF000002300BF00BF184C181BA34216D007DC0B
:1010000083B16FF08060184470B1022818D111E0EC
:10101000B0F5007F10D0114C204448B1B0F5003F2E
:101020000ED10BE002230DE000230BE0002309E0CA
:10103000002307E0012305E0012303E0012301E091
:10104000002300BF00BFD8B210BD000003000004A1
:101050000003000800000310000100080001FFF772
:10106000F0B585B005460E460024254880780090EE
:1010700023488078019000208DF808008DF8090041
:101080008DF80A6000BF05E0295D0DF10B000155E8
:10109000601C84B2B442F7DB1A480078012814D1EE
:1010A0001748817818A0FFF7E3F8002405E0295DD0
:1010B0001BA0FFF7DDF8601C84B2082CF7DB1AA038
:1010C000FFF7D6F800200F49087069461748FFF768
:1010D000E3FE0746002401E0601C84B23946134851
:1010E000FFF76EFF18B940F6FF708442F4DB40F65C
:1010F000FF70844202DB012005B0F0BD0020FBE759
:10110000040100201401002052585F49443A253060
:101110002E32582020444154413A20200000000043
:1011200025302E32582020000D0A000000640040B7
:101130002DE9F04705460F4690469946089C14480D
:10114000077080F8018080F80290200E1049C87066
:10115000200C0871200A48718C710020C871294642
:101160000CA0FFF785F8002606E00948815D0FA076
:10117000FFF77EF8701CC6B2082EF6DB0D4805702E
:1011800001200D4908700D490870BDE8F087000086
:101190000D0400200D0A54585F49443A25302E3280
:1011A000582020444154413A2020000025302E325E
:1011B00058202000F0000020EF0000201401002043
:1011C0007047000010B50446064800EBC400C07923
:1011D00038B90120034901EBC401C871204603F06E
:1011E000CBFB10BDC803002010B50446064800EB39
:1011F000C400C07938B10020034901EBC401C871B3
:10120000204603F0B9FB10BDC803002010B52E48DE
:1012100000782E494870642008702B484068486068
:1012200029480078092833D007DC46D2DFE800F0EF
:1012300045181B1E2124272A2D000F2837D008DC33
:101240000A2828D00C2829D00D282AD00E2834D1DD
:101250002AE088282ED0F2282DD0FF282DD12BE08F
:1012600001F002FD2DE001F0CFFC2AE000F060FD6E
:1012700027E000F079FD24E001F0BAFF21E000F062
:1012800077F91EE002F098FA1BE001F015FB18E078
:1012900002F058FA15E000F097FB12E001F0A6FC0E
:1012A0000FE001F0D5FA0CE001F00CFD09E000F0D0
:1012B0000FF806E005E004E003E0022003490870AF
:1012C00000BF00BF10BD0000F4000020FC000020A3
:1012D00010B51648407830B1012810D0022813D03C
:1012E00003281DD116E00521082000F0F5FA044678
:1012F00041F6CA406043040B0D48446014E00D48B9
:1013000000680B4908710FE00A48001D0068084991
:10131000087109E00748083000680549087103E0D2
:1013200003200349087000BF00BF10BDF400002077
:10133000FC000020000122422DE9F0410246002578
:101340000026002000230024002791F803C00CF0A1
:101350000F0591F803C00CF0100CBCF1000F03D086
:1013600091F802C04CEA050591F800C0BCF1000FED
:1013700031D0146800202BE04FF0010C0CFA00F380
:10138000B1F800C00CEA03069E4220D183004FF062
:101390000F0C0CFA03F7BC4305FA03FC4CEA0404F7
:1013A00091F803C0BCF1280F06D14FF0010C0CFAE4
:1013B00000FCC2F814C00AE091F803C0BCF1480F69
:1013C00005D14FF0010C0CFA00FCC2F810C0401C13
:1013D0000828D1D31460B1F800C0BCF1FF0F34DD90
:1013E000546800202EE000F1080C4FF0010808FAC4
:1013F0000CF3B1F800C00CEA03069E4221D1830031
:101400004FF00F0C0CFA03F7BC4305FA03FC4CEA4F
:10141000040491F803C0BCF1280F05D100F1080CB9
:1014200008FA0CF8C2F8148091F803C0BCF1480F18
:1014300007D100F1080C4FF0010808FA0CF8C2F8C7
:101440001080401C0828CED35460BDE8F081000015
:1014500008B50121302000F033FE0720ADF8000070
:1014600003208DF8020028208DF8030069460F48FC
:10147000FFF762FF07210D4800F064F810208DF897
:10148000030069460A48FFF757FF6020ADF80000E7
:1014900069460748FFF750FF6021054800F052F801
:1014A0000721034800F04EF808BD0000001001407D
:1014B00000140140F0B50A46002300240021002555
:1014C00000F00046B6F1004F02D11D4EF16901E077
:1014D0001B4E7168C0F3034583B200F44016B6F5A5
:1014E000401F08D121F07061154E766826F07066B5
:1014F000134F7E6012E000F48016B6F5801F06D10F
:10150000032606FA05F4A14341F0706106E0460D9A
:10151000360103FA06F6B14341F0706122B1460D7F
:10152000360103FA06F6314300F00046B6F1004FEB
:1015300002D1034EF16101E0014E7160F0BD000087
:101540000000014041617047016170474FF6FF7133
:101550000180022181700421C1707047014601EBB6
:101560008100024A1044007970470000E003002027
:1015700010B5C3488078032870DA0020C14948605C
:10158000BF4840780C286AD008DC69D2DFE800F058
:1015900025303B46515B69748694A3B4952876D078
:1015A0000EDC8A2874D006DC0D2872D0822871D017
:1015B000872855D1DAE08C286DD08D28F9D1F8E054
:1015C000C22869D004DC992867D09A28F1D117E1A4
:1015D000D12870D0D228ECD13DE1A94989780022E8
:1015E00042EA4111C8B200F08CFFA649486041E1CF
:1015F000A3498978022242EA4111C8B200F081FF72
:10160000A049486036E19E498978082242EA4111A2
:10161000C8B200F076FF9B4948602BE19849897871
:101620000A2242EA4111C8B200F06BFF95494860B6
:1016300020E19348807800EBC000934951F82000E6
:101640009049486016E18E48807800EBC0008E49D2
:1016500001EB800040688B4948600BE10BE15EE0E4
:1016600004E18748807800EBC000874901EB8000E7
:10167000807A84494860FDE08148807800EBC000B2
:10168000814901EB8000C07A7E494860F2E09BE02E
:1016900077E052E05FE080E0BFE0A3E000F076FF9B
:1016A000774989784900084100F0010010B1012014
:1016B00074490871DEE0BBE000F068FF704989788A
:1016C000012202EB4101084100F0010010B10120AC
:1016D0006C490871CEE003217C2000F049FF684985
:1016E00089784A0001219140084008B1012000E0BA
:1016F000002064494860BDE003217C2000F038FFF1
:101700005F498978012202EB4102012191400840A2
:1017100008B1012000E000205A494860AAE0584979
:101720008978142242EA4111C8B2022100F020FF58
:10173000C0F34000534908719CE051498978142254
:1017400042EA4111C8B2022100F012FF00F001008C
:101750004C4908718EE04A498978042242EA4111D5
:10176000C8B200F0EBFE4749486083E044498978FD
:101770000E2242EA4111C8B200F0E0FE4149486041
:1017800078E03F498978142242EA4111C8B2032126
:1017900000F0EEFE3B4908716CE03948807800EBC0
:1017A00040003A4908448078C0F108003549087182
:1017B00060E0334989781A2242EA4111C8B200F048
:1017C000BDFE3049486055E02D498978142242EA2F
:1017D0004111C8B2022100F0CBFEC0F380002949BC
:1017E000486047E026498978182242EA4111C8B288
:1017F000022100F0BDFE00F00F002249087139E01F
:101800001F498978182242EA4111C8B2022100F02A
:10181000AFFE00111B4908712CE01948807800EBDD
:10182000C000194901EB8000C0691649486021E0F9
:1018300000F06AF81249897801EBC101124A02EB03
:101840008101498C00FB01F4E01704EBD0504012F9
:101850000C4948600EE00A48807800EBC0000A4955
:1018600001EB8000408C0749486003E003200549F4
:10187000087000BF02E004200249087010BD00009B
:10188000F4000020FC00002038000020B9000020F7
:10189000014619B902480068C0B270470020FCE751
:1018A0002001234210B5044607230122214609489E
:1018B000FEF7BCFF01210748FFF719F800BF02211E
:1018C0000448FEF777FF0028F9D00248FEF76EFFC4
:1018D00010BD0000002401402DE9F04107460C46F0
:1018E0000025002608E03846FFF7DCFF0544052008
:1018F00003F078FB701CC6B2A642F4DBB5FBF4F033
:1019000080B2BDE8F081000010B5284802F043FD28
:101910002749086027480078802804D108460068D5
:10192000254908602FE0234800787F2807D1204808
:101930000068A0F5EA4031381F49086023E01D48DF
:10194000007880280BDD1B4800788038184909682A
:1019500047F2305202FB00101749086013E01548A7
:10196000007880280FDA13480078C0F17F00104912
:101970000968494247F23052114402FB0010C0F19D
:10198000FF300D4908600C480068002805DD0A4852
:1019900001680AA0FEF76CFC05E0074800684142B8
:1019A00007A0FEF765FC0448006810BD0004004075
:1019B00018010020200100201C0100202B256400BC
:1019C0002D256420000000000E484078452804D0F2
:1019D000462807D047280FD109E00B4800780B496B
:1019E00008710DE0084880780849087108E0064849
:1019F00040780649087103E003200449087000BFDD
:101A000000BF7047F400002004010020FC0000200B
:101A100000BFFEE710B504460221204601F0D2FACD
:101A2000082141EA4411C8B202F095FF0A2141EAB7
:101A30004411C8B202F08FFF10BD000070B501F074
:101A4000E5FA00250CE0002406E044EA4511C8B29E
:101A500002F081FF601CC4B21C2CF6DD681CC5B20C
:101A6000032DF0DB4FF49171682002F04EFF02234A
:101A7000002211467E2002F034FF4148017A407A6C
:101A800061F31F10C2B200231946182002F029FF8B
:101A90003B4890F82C1090F82D0061F31F10C2B253
:101AA00000231946382002F01CFF354890F85010EA
:101AB00090F8510061F31F10C2B20023194658205C
:101AC00002F00FFF2E4890F82000002141EA40006C
:101AD0002B4991F821100843C2B200231946142063
:101AE00002F0FFFE264890F84400002141EA400041
:101AF000234991F821100843C2B20023194634202B
:101B000002F0EFFE1E4890F86800002141EA400014
:101B10001B4991F869100843C2B2002319465420AA
:101B200002F0DFFE16488169042002F001FF14482C
:101B3000C16B242002F0FCFE1148016E442002F02B
:101B4000F7FE0F480168062002F0DFFE0C484168EE
:101B5000002001F097FA0A48416A262002F0D5FEDB
:101B60000748816A012001F08DFA0548816C462002
:101B700002F0CBFE0248C16C022001F083FA70BD76
:101B80003800002010B501F0E1F9002467E00120E1
:101B900004EB44013F4A5054052004EB4401114436
:101BA000487004EB4401114488700320C4EBC40165
:101BB000394A5054C4EBC401114448700020C4EBAE
:101BC000C40111448870C4EBC4011144C870C4EB53
:101BD000C401114408710120C4EBC40111444871CF
:101BE0000220C4EBC40111448871002004EB84017D
:101BF0002A4A505404EB84011144487004EB8401D8
:101C00001144887004EB84011144C87004EB840112
:101C1000114408710220224901F83400002001EB30
:101C2000C40148701E4901EBC401C8701C4901EB96
:101C3000C401887002201A4901EBC4010871032015
:101C4000174901EBC40148710520154901EBC40196
:101C500088710020124901EBC401C871641C032C77
:101C600095D300200F49086000240FE0E0B203F094
:101C700051F8E0B203F0DAF8E0B202F00FFFE0B2A0
:101C800003F038F9E0B202F077FE641C032CEDD3C8
:101C900010BD0000EF030020F8030020E003002047
:101CA000C80300209881214208B50121482000F096
:101CB00007FA4FF44060ADF8000010208DF80300E3
:101CC00003208DF8020069461648FFF735FB4FF4F4
:101CD00040611448FFF738FC4FF40070ADF8000085
:101CE00028208DF8030003208DF8020069460D4876
:101CF000FFF722FB4FF400710A48FFF723FC402056
:101D0000ADF8000010208DF8030003208DF80200CC
:101D100069460548FFF710FB40210348FFF712FC16
:101D200008BD000000180140000C014000BFFEE7A4
:101D300010B50B48807803280DDA0949887802210C
:101D400001F040F906498978082242EA4111C8B2F7
:101D500002F001FE02E004200249087010BD0000FC
:101D6000F4000020FC00002010B5344880780328DF
:101D700060DA3248407818B130484078012855D1AF
:101D80002E4880782E49085CF8B12C4A927802EBF4
:101D9000C2022C4B53F82210284A9278062343EAB9
:101DA0004212D0B202F0C4FD244A927802EBC20281
:101DB000244B03EB82025168204A907801F062F9CB
:101DC00000201E4989781E4A50541C4988780021F9
:101DD00001F0F8F81948407848B9184A51689278E3
:101DE000002343EA4212D0B202F08FFD13E0134900
:101DF0008978022242EA4111C8B200F082FB0F4901
:101E0000496844180D498978002242EA4111C8B254
:101E1000214602F07AFD09498978002242EA4111FF
:101E2000C8B200F06EFB0849486006E0032006498E
:101E3000087002E004200449087010BDF40000207E
:101E4000EB00002038000020FC000020704700005C
:101E500070B5002100230F22C47804B3154C246808
:101E600004F4E064C4F5E064210AC1F10403CA404B
:101E7000447804FA03F184781440214309010E4C9C
:101E80000678A155047804F01F050124AC400578BC
:101E90006D11AD0005F1E025C5F8004109E00478B9
:101EA00004F01F050124AC40044D0678761145F876
:101EB000264070BD0CED00E000E400E080E100E0B1
:101EC00002490143024A1160704700000000FA0510
:101ED0000CED00E0704700007CB55A4800780128FE
:101EE00031D15948007818BB584840788DF8000027
:101EF000574800788DF80100554840788DF8020069
:101F00005348C0798DF80300514880798DF804005A
:101F10004F4840798DF805004D4800798DF806004E
:101F200000208DF8070008216846FFF799F834E093
:101F300045480078012830D1002401E0601CC4B27B
:101F4000092CFBDB29E03F480078022825D100203E
:101F50003F49487001200870002048603B484078A5
:101F60008DF80000084600788DF80100084640789A
:101F70008DF802000846C0798DF803000846807984
:101F80008DF80400084640798DF805000846007970
:101F90008DF8060000208DF8070000202949087000
:101FA000294908702B48007808B101F04BFD2A48F8
:101FB000007801283BD12548407828490978884293
:101FC00003D026480078C82831D10025002405E038
:101FD0002348005D2844C5B2601CC4B2082CF7DB5E
:101FE0001F48007A00BB1E4800781E4908701C4834
:101FF000407848701A48807888701948C178194824
:10200000C171174801791748817115484179154800
:1020100041711348807913490871012009490870FA
:1020200000200D49087002E00220064908700548AA
:10203000007828B103480078022801D0FFF7E6F8BD
:102040007CBD0000E9000020EA000020040100201F
:10205000FC000020EE000020EF000020F000002037
:102060000D040020F400002001460020034A5068BF
:1020700020F44040084350607047000000100240C8
:1020800029B1064AD2690243044BDA6104E0034AEB
:10209000D2698243014BDA617047000000100240B0
:1020A00029B1064A12690243044B1A6104E0034A4B
:1020B00012698243014B1A61704700000010024010
:1020C00029B1064A92690243044B9A6104E0034A2B
:1020D00092698243014B9A617047000000100240F0
:1020E00029B1064AD2680243044BDA6004E0034A8D
:1020F000D2688243014BDA60704700000010024052
:1021000030B500210022002400232D4D6D6805F01C
:102110000C0121B1042905D0082923D105E0294D5E
:10212000056022E0284D05601FE0254D6D6805F42F
:102130007012234D6D6805F48034022505EB924240
:102140001CB9224D554305600BE01D4D6D6805F42B
:1021500000351DB11B4D5543056002E01A4D554336
:10216000056002E0174D056000BF00BF144D6D68AB
:1021700005F0F0010909164D6B5C0568DD4045600E
:102180000F4D6D6805F4E061090A114D6B5C4568FF
:10219000DD4085600A4D6D6805F46051C90A0C4D3B
:1021A0006B5C4568DD40C560054D6D6805F44041D8
:1021B000890B084D6B5CC568B5FBF3F5056130BD57
:1021C0000010024000127A000024F40000093D00D3
:1021D00022000020320000200149C8717047000031
:1021E0000010024070B50024B2E05B48005D012899
:1021F0007ED100F0CBF9012101EB4401084100F050
:102200000100B8B35548005DA0BB5548006855496A
:1022100041F82400012051490855514800685149AE
:1022200041F8240050498978082242EA4111C8B295
:10223000002102F07DFB022141EA4411C8B20021D5
:1022400002F063FB002141EA4411C8B2002102F010
:102250005CFB454A927802EBC202444B03EB8202DC
:10226000D2695108404A9278082343EA4212D0B218
:1022700002F05EFB3948005D01282FD100F086F99D
:10228000012101EB4401084100F0010030BB354859
:1022900050F82400324909680D1A002D01DB284648
:1022A00000E06842642819DB2D4800682D4941F898
:1022B00024002D4A927802EBC2022C4B03EB8202DF
:1022C000D26952425108284A9278082343EA4212BE
:1022D000D0B202F02DFB0320204908551F48005DB5
:1022E000032833D100F052F9012101EB440100E051
:1022F0002CE0084100F0010040B31A4850F82400D7
:10230000174909680D1A002D01DB284600E06842D4
:1023100064281BDB022141EA4411C8B2002102F00B
:10232000F4FA002141EA4411C8B2002102F0EDFAAA
:102330000D498978082242EA4111C8B2002102F011
:10234000F7FA00200549085503490855601CC4B236
:10235000022C7FF74AAF70BDF10000201101002070
:102360000000002030040020F4000020380000208D
:1023700010B5012017498978174A505415498878B3
:10238000022100F01FFE134989780C2242EA411114
:10239000C8B24FF47A7102F0CBFA0E49897806225E
:1023A00042EA4111C8B240F2FF7102F0C1FA094A93
:1023B000927802EBC202094B03EB8202D2695142CE
:1023C000044A9278082343EA4212D0B202F0B0FAEB
:1023D00010BD0000F4000020EB00002038000020B9
:1023E0002DE9F04704460E4617461D46DDE90889EB
:1023F0003548005D052827D2DFE800F0030A1118F0
:102400001F00204602F0B8FA01202F4908551FE0AE
:10241000204602F043FB02202B49085518E02046D5
:1024200002F078FC03202849085511E0204602F00C
:10243000FDFC0420244908550AE0204602F05AFD1C
:1024400000202149085503E000201F49085500BF1E
:1024500000BFC4EBC4001D490844807920B10128A5
:102460000FD0022825D112E026B119480068C0F328
:102470008740307027B116480068C0F38720387055
:1024800017E01DB112480068800A286011E035B1DC
:102490000F480068C00B2860286840012860B8F128
:1024A000000F05D00A480088C0F3842088F8000097
:1024B00000BF00BFB9F1000F03D00548007889F8CC
:1024C0000000BDE8F0870000DC000020F8030020D9
:1024D000E00000207CB505460C4645F001008DF873
:1024E0000000694601A800F0DBF89DF805002070A7
:1024F0009DF8060060709DF80700A0709DF804002C
:102500007CBD7CB5054645F001008DF800006946AC
:1025100001A800F0C5F89DF8050000049DF806101C
:1025200040EA01209DF8071040EA010404F400008D
:1025300008B144F07F4420467CBD00007CB50546D0
:1025400045F001008DF80000694601A800F0A8F8E8
:102550009DF807009DF8061040EA012404F400608D
:1025600008B10248044320467CBD000000F0FFFF94
:102570007CB504460D4644F001008DF80000694624
:1025800001A800F08DF801A8405D7CBD10B50122C6
:102590001146002000F0D8F810BD1CB573208DF84E
:1025A0000000694601A800F07BF89DF805000004D2
:1025B0009DF8061040EA01209DF8071040EA01044A
:1025C00004F4000008B144F07F4420461CBD2DE90E
:1025D000F04105460F46164600220321022000F076
:1025E000B3F80022C5F30721022000F0ADF8E9B2EC
:1025F0000022022000F0A8F800240CE0701EA04287
:1026000001D1012000E0002002460021022000F05C
:102610009BF83855641CB442F0D3BDE8F08110B586
:10262000044600220321022000F08EF80022C4F3A9
:102630000721022000F088F8E1B20022022000F019
:1026400083F801220021022000F07EF810BD70B551
:1026500006460C4615460EBB0022C5F30741012075
:1026600000F072F820602068000220600022C5F3AC
:102670000721012000F068F82168084320602068E5
:1026800000022060E9B20122104600F05DF82168E6
:102690000843206020680009206000E000BF70BD92
:1026A00070B506460C46207800F00305032D2ADAA3
:1026B000207800F0010030BB2078602823DA1E4823
:1026C000405D00BB207800F09F0020B1207800F032
:1026D0009F00082817D11948405D58B105EBC50087
:1026E000174A02EB8000817A284600F085FF00201F
:1026F000124948551348405D28B12846FEF774FD3D
:1027000000201049485521780022104600F01CF89E
:10271000307061780022104600F016F87070A178D1
:102720000022104600F010F8B070E178012200207D
:1027300000F00AF8F07070BDAD000020B00000207D
:1027400038000020B30000202DE9F04106468846FD
:102750001746002426B1012E06D0022E0DD108E026
:1027600000203649086009E000203449091F08604C
:1027700004E000203249086000E000BF00BF26B13D
:10278000012E03D0022E4AD125E000BF06E0601CD6
:10279000C4B2C82C02DD0020BDE8F0810221294826
:1027A00000F0F0FA0028F2D04146264800F0F6FA90
:1027B000002405E0601CC4B2C82C01DD0020EBE75A
:1027C0000121204800F0DEFA0028F3D01D4800F077
:1027D000E2FAC5B225E005E0601CC4B2C82C01DDF8
:1027E0000020D9E70221184800F0CCFA0028F3D0E5
:1027F0004146154800F0D2FA002405E0601CC4B23E
:10280000C82C01DD0020C7E701210F4800F0BAFA0B
:102810000028F3D00C4800F0BEFAC5B201E0002554
:1028200000BF00BF3FB10120044908600749C1F85B
:10283000A001034908602846AEE70000A4812242B7
:10284000B081214200300140003800400080224227
:1028500010B516488078032823DA1448407820B150
:1028600001280AD0022817D10FE001200F498978EA
:102870000F4A5054FFF77CFD12E0FFF759FA05208C
:102880000A4989780A4A50540AE008488078084979
:10289000085C0849087103E003200649087000BF7E
:1028A00002E004200349087010BD0000F40000207D
:1028B000F1000020FC00002010B5C84880780328F3
:1028C00077DAC6484078822874D00ADCA0F1040088
:1028D0000A2870D2DFE800F0122F4F716F6F6F6F10
:1028E00092B29A2868D004DC8C287DD0992862D1D5
:1028F00002E1C22879D0C828F9D15BE1B7488078D5
:1029000000EBC000B64A02EB800103221002FFF781
:102910005EFEB24A927802EBC202B14B03EB820137
:10292000AE4A927802EB4202120102F58070032255
:1029300002F01EF94DE1A948807800EBC000A84ADA
:1029400002EB8000011D03224FF44170FFF73FFEB0
:10295000A24A927802EBC202A14B03EB8202111D44
:102960009E4A927802EB4202120102F58270032223
:1029700002F0FEF82DE140F20A30FFF750FE9749D1
:10298000897801EBC101964A02EB81018872934A72
:10299000927802EBC202924B03EB8202917A8F4A49
:1029A000927802EB4202120102F5857002F068F99A
:1029B0000FE10FE162E008E1BCE040F20B30FFF70D
:1029C0002EFE8649897801EBC101854A02EB81011F
:1029D000C872824A927802EBC202814B03EB8202F8
:1029E000D17A7E4A927801E06AE0C1E002EB4202CD
:1029F000120102F20B1002F043F9EAE04FF44870C2
:102A0000FFF70DFE7549897801EBC101744A02EBAD
:102A1000810181F82000714A927802EBC202704B6A
:102A200003EB820292F820106C4A927802EB420289
:102A3000120102F5907002F023F9CAE040F2213051
:102A4000FFF7EDFD6549897801EBC101644A02EBAE
:102A5000810181F82100614A927802EBC202604B49
:102A600003EB820292F821105C4A927802EB420258
:102A7000120102F2211002F003F9AAE0574880780F
:102A800000EBC000564A02EB800000F1180103225F
:102A90004FF44670FFF79BFD504A927802EBC2025A
:102AA0004F4B03EB820202F118014C4A927802EB81
:102AB0004202120102F58C70032202F059F888E0FC
:102AC00040F23230FFF7ABFD4449897801EB410118
:102AD000444A11448870414A927802EB4202414BC9
:102AE0001A4491783D4A927802EB4202120102F2B6
:102AF000022002F0C5F86CE040F20930FFF78FFDCC
:102B00003649897801EBC101354A02EB81014872EF
:102B1000324A927802EBC202314B03EB8202517AC5
:102B20002E4A927802EB4202120102F2091002F0E0
:102B3000A7F84EE04FF44270FFF771FD27498978FE
:102B400001EBC101264A02EB81010872234A927807
:102B500002EBC202224B03EB8202117A1F4A9278E7
:102B600002EB4202120102F5847002F089F830E0B3
:102B70001A48807800EBC000194A02EB800000F18F
:102B80001C0103224FF44770FFF721FD134A92788E
:102B900002EBC202124B03EB820202F11C010F4A4C
:102BA000927802EB4202120102F58E70032201F0CC
:102BB000DFFF0EE0FF21102002F062F8FF2112205B
:102BC00002F05EF800F03EFF03E0032006490870C3
:102BD00000BF02E004200449087010BDF40000208A
:102BE00038000020B9000020FC00002010B50420AF
:102BF000044908700320887005204870FEF714F817
:102C000010BD00000401002010B51448807803288E
:102C10001FDA012011498978114A50540F498878E8
:102C2000022100F0CFF90D498978062242EA4111CC
:102C3000C8B240F2FF7101F07BFE084A526851426F
:102C4000064A9278082343EA4212D0B201F070FE9D
:102C500002E004200349087010BD0000F4000020C9
:102C6000EB000020FC00002010B5134880780328FA
:102C70001DDA012010498978104A50540E4988788D
:102C8000022100F09FF90C498978062242EA41119D
:102C9000C8B240F2FF7101F04BFE074A51689278CA
:102CA000082343EA4212D0B201F042FE02E00420BF
:102CB0000349087010BD0000F4000020EB00002064
:102CC000FC00002026484078052843D2DFE800F0C9
:102CD000030E1B2835002248007918B10120214934
:102CE000086002E000201F49086037E01C480079B6
:102CF00020B101201B49091D086003E0002019498B
:102D0000091D08602AE01648007920B10120154904
:102D10001439086003E000201249143908601DE0EE
:102D20000F48007920B101200E491039086003E0F6
:102D300000200C491039086010E00948007920B1E2
:102D4000012008490C39086003E0002005490C39CE
:102D5000086003E003200449087000BF00BF70470B
:102D6000F400002094812242FC00002021B102885E
:102D700042F04002028004E002884FF6BF731A401E
:102D8000028070470246002013890B400BB10120DE
:102D900000E00020704701468889704781817047B4
:102DA00010B50022028802F441520B884C8823435C
:102DB0008C882343CC8823430C8923434C892343A9
:102DC0008C892343CC8923431A430280838B4FF29F
:102DD000FF74234083830B8A038210BD00B587B044
:102DE00001212820FFF76CF94FF44070ADF818006E
:102DF00010208DF81B0003208DF81A0006A93C480E
:102E0000FEF79AFA4FF48250ADF8180006A9394837
:102E1000FEF792FA0120384908603849C1F8A0014C
:102E20003749086001210820FFF74AF9012188038A
:102E3000FFF726F94FF46040ADF8180018208DF820
:102E40001B0003208DF81A0006A92A48FEF774FA21
:102E50004FF460412748FEF777FB0020ADF80400EF
:102E60004FF48270ADF806000020ADF80800022093
:102E7000ADF80A000120ADF80C004002ADF80E00DC
:102E80000820ADF810000020ADF812000720ADF8C2
:102E9000140001A91B48FFF783FF01211948FFF720
:102EA00065FF01210420FFF70BF901210803FFF75B
:102EB00007F9E020ADF8180006A91348FEF73CFA20
:102EC000E0211148FEF740FB0220ADF80A00012086
:102ED000ADF80C002820ADF8100001A90B48FFF751
:102EE0005FFF01210948FFF741FF07B000BD000067
:102EF00000140140000C0140A481224200802242C3
:102F0000B0812142003800400008014000300140FB
:102F10007047000070B504460D4604EB8400034979
:102F200008440571204601F0F5FE70BDE003002065
:102F300070B504460D4604EB44000349084485700F
:102F4000204601F073FF70BDEF03002010B5122082
:102F5000FFF765FB37281DD0032219494FF4007095
:102F600001F006FE03221649C91C4FF40C7001F053
:102F7000FFFD03221249891D4FF4187001F0F8FD7E
:102F80003721122001F07CFE03220D494FF44C70D2
:102F900001F0EEFD03220A494FF40070FFF717FB22
:102FA00003220749C91C4FF40C70FFF710FB0322E2
:102FB0000349891D4FF41870FFF709FB10BD00008D
:102FC000B90000207CB504460D46142040EA4410A8
:102FD000401CC0B28DF8040001A96846FFF760FBF1
:102FE000142040EA4410C0B28DF804009DF801009E
:102FF0008DF805009DF802008DF806008DF8075049
:1030000001A96846FFF74CFB7CBD000010B51020FD
:10301000FFF705FB37281DD0242219494FF4807093
:1030200001F0A6FD2422164924314FF4987001F0D6
:103030009FFD2422124948314FF4B07001F098FDF1
:103040003721102001F01CFE24220D494FF440705E
:1030500001F08EFD24220A494FF48070FFF7B7FA81
:103060002422074924314FF49870FFF7B0FA242244
:10307000034948314FF4B070FFF7A9FA10BD0000C2
:10308000380000202DE9F04F8DB005460F46C7F3FC
:103090000A07182141EA4511C8B208A9FFF71AFA30
:1030A0009DF82100099009984FEA201A099800F02C
:1030B0000F094FF0FF300B900A90D1451DDBA9EBB3
:1030C0000A02012101FA02F003F0B1FA0022444B96
:1030D000CDE9000103F0D6FACDE90401384603F04A
:1030E000BDFACDE90201DDE9042303F019F9CDE9C8
:1030F000060103F0E3F880461EE0AAEB0902012175
:1031000001FA02F003F093FA02460B46CDE9000102
:103110000020334903F004F9CDE90401384603F0F7
:103120009DFACDE90201DDE9042303F0F9F8CDE9C8
:10313000060103F0C3F88046404603F0A1FB294A8C
:10314000294BCDE9040103F09DFACDE9060103F016
:10315000B5F88346002424E0012101FA04F003F0CD
:1031600066FACDE90401584603F08AFB00221F4BA2
:10317000CDE9000103F086FACDE90201DDE904237F
:1031800003F080FACDE9060103F022FAA0F18006EF
:10319000002E05DB7F2E03DC06F180000B900A94E5
:1031A000641C0D2CD8DD00208DF820000B98C0B2D7
:1031B0008DF821000A98C0B28DF82200122141EA50
:1031C0004511C8B208A901F079FB0C2141EA45116B
:1031D000C8B2394601F0ACFB00200DB0BDE8F08F5D
:1031E0000000604004560E2DB29DEF3F00002040CD
:1031F0001CB5F848807803287EDAF64840780D2818
:103200007BD009DC7AD2DFE800F01A242E38425B4A
:103210008C9C79797979A7009A2870D008DC82286B
:103220006ED08A286DD08C286CD0992866D147E161
:10323000C22868D0D12867D0D228F7D1BEE1E54AAC
:1032400051689278002343EA4212D0B201F05DFB4C
:10325000CAE1E04A51689278022343EA4212D0B2AE
:1032600001F053FBC0E1DB4A51689278082343EA3E
:103270004212D0B201F049FBB6E1D64A51689278C9
:103280000A2343EA4212D0B201F03FFBACE1D1483D
:103290004068D049897801EBC101CF4A42F821004A
:1032A000CC4A927802EBC202CB4B53F82210C94AA7
:1032B0009278062343EA4212D0B201F039FB93E13F
:1032C000C4484068C349897801EBC101C24A02EB96
:1032D00081014860BF4A927802EBC202BE4B03EB09
:1032E00082025168BB4A92780C2343EA4212D0B260
:1032F00001F01EFBB74A08E077E172E070E117E1E8
:10330000B4E0C7E0CCE049E153E1927802EBC202BD
:10331000B14B03EB82025168AE4A9078FFF7B2FEE0
:1033200062E1AC480079AB49897801EBC101AA4A56
:1033300002EB81018872A74A1179907800F05CF95C
:1033400052E1A4480079A349897801EBC101A24A5E
:1033500002EB8101C87247E19E488078152141EA5D
:103360004010C0B28DF80000694601A8FFF798F937
:103370009DF805008DF801009648007980B19DF810
:10338000060040F002008DF8020001209149897882
:1033900001EBC101904A02EB810181F820000FE0AE
:1033A0009DF8060020F002008DF8020000208949F7
:1033B000897801EBC101884A02EB810181F8200084
:1033C0009DF807008DF8030082488078142141EAB7
:1033D0004010C0B28DF80000694601A8FFF760F9FF
:1033E00002E17C488078152141EA4010C0B28DF896
:1033F0000000694601A8FFF753F99DF805008DF814
:1034000001007448007980B19DF8060040F0010089
:103410008DF8020001206F49897801EBC1016E4AE5
:1034200002EB810181F821000FE09DF8060020F0F9
:1034300001008DF8020000206649897801EBC10186
:10344000654A02EB810181F821009DF807008DF8A3
:10345000030060488078142141EA4010C0B28DF822
:103460000000694601A8FFF71BF9BDE05948406814
:103470005849897801EBC101574A02EB8101886103
:10348000544A51689278042343EA4212D0B201F0C0
:103490004FFAA9E04F4A11799078FFF793FDA3E026
:1034A0004C480079C0F108004A49897801EB410194
:1034B0004A4A114488704749887801F01BFD93E01F
:1034C00044488078192141EA4010C0B28DF80000CC
:1034D000694601A8FFF7E4F89DF805008DF80100A2
:1034E0009DF8060000F0F0003A49097901F00F015B
:1034F00008438DF802009DF807008DF80300354859
:103500008078182141EA4010C0B28DF80000694669
:1035100001A8FFF7C5F82F48007900F00F002D49EA
:10352000897801EBC1012C4A02EB810148725BE012
:1035300028488078192141EA4010C0B28DF8000077
:10354000694601A8FFF7ACF89DF805008DF8010069
:10355000204801799DF8060061F31F10C0B28DF874
:1035600002009DF807008DF803001A4880781821A2
:1035700041EA4010C0B28DF80000694601A8FFF78B
:103580008FF81448007900F00F001249897801EB98
:10359000C101114A02EB8101087225E00D48406823
:1035A0000C49897801EBC1010B4A02EB8101C8612A
:1035B0001AE00849486800F09BF815E00548808843
:1035C0000449897801EBC101034A02EB8101488477
:1035D0000AE00000F400002038000020B9000020BC
:1035E00003200449087000BF02E00420014908706C
:1035F0001CBD0000FC00002070B505460C46E11023
:103600002846FFF795FC70BD10B500F001F810BD1D
:103610000CB50020019000903348006840F48030E1
:103620003149086000BF3048006800F40030009065
:103630000198401C0190009818B90198B0F5A06F4E
:10364000F1D12948006800F4003010B10120009049
:1036500001E0002000900098012843D12348006831
:1036600040F01000214908600846006820F003007F
:1036700008600846006840F0020008601A48406888
:10368000194948600846406848600846406840F468
:10369000806048600846406820F47C104860084616
:1036A000406840F4F81048600846006840F08070B8
:1036B000086000BF0C48006800F000700028F9D0D6
:1036C0000948406820F00300074948600846406800
:1036D00040F00200486000BF0348406800F00C0062
:1036E0000828F9D10CBD0000001002400020024063
:1036F00000280FDD47F2305190FBF1F180310F4A85
:10370000117047F2305190FBF1F201FB12010C4AAB
:10371000118012E0414247F2305291FBF2F1C1F1C7
:103720007F01064A1170414247F2305291FBF2F399
:1037300002FB1311511A024A118070472001002028
:103740002404004010B519484078452804D0462884
:103750000ED0472824D117E0144800791449087086
:1037600008460178502001F08BFAFDF75DFA1BE066
:103770000E4800790E49887008468178512001F082
:103780007FFAFDF751FA0FE00848007908494870C0
:1037900008464178522001F073FAFDF745FA03E03C
:1037A00003200449087000BF00BF10BDF4000020D2
:1037B00004010020FC00002010B590488078032808
:1037C0007ADA8E484078822877D00ADCA0F10400AB
:1037D0000A2873D2DFE800F01426394B7272727235
:1037E0005D76C2286BD006DC8C2869D0992868D019
:1037F0009A2863D1B1E0C82877D0D228F9D1DFE088
:103800007E4A927802EBC2027D4B03EB82017B4A37
:10381000927802EB4202120102F58070042201F05C
:10382000A7F9E5E0754A927802EBC202744B03EB0C
:103830008202111D714A927802EB4202120102F5D6
:103840008270042201F094F9D2E06C4A927802EB83
:10385000C2026B4B03EB8202917A684A927802EBC8
:103860004202120102F5857001F00AFAC0E0634AD3
:10387000927802EBC202624B03EB8202D17A5F4A7A
:10388000927802EB4202120102F20B1001F0F8F9F9
:10389000AEE05A4A927802EBC202594B03EB820225
:1038A00092F82010554A927802EB4202120102F57A
:1038B000907001F0E5F99BE09BE017E094E05EE09A
:1038C00028E038E04D4A927802EBC2024C4B03EB01
:1038D000820292F82110494A927802EB42021201C8
:1038E00002F2211001F0CCF982E05CE0434A9278C8
:1038F00002EBC202424B03EB820202F118013F4A83
:10390000927802EB4202120102F58C70032201F060
:103910002FF96DE0394A927802EB4202394B1A4492
:103920009178364A927802EB4202120102F20220AA
:1039300001F0A6F95CE0314A927802EBC202304B0A
:1039400003EB8202517A2D4A927802EB4202120175
:1039500002F2091001F094F94AE0284A927802EB49
:10396000C202274B03EB8202117A244A927802EBBF
:103970004202120102F5847001F082F938E01F4A18
:10398000927802EBC2021E4B03EB820202F11C0191
:103990001A4A927802EB4202120102F58E7003225B
:1039A00001F0E6F824E0FF21102001F069F9FFF7AB
:1039B0002DFBFF21122001F063F9FFF7C7FA17E092
:1039C0000E4A927802EBC2020D4B03EB820202F127
:1039D00022010A4A927802EB4202120102F591702A
:1039E000022201F0C5F803E003200749087000BF78
:1039F00002E004200449087010BD0000F40000201B
:103A000038000020B9000020FC000020042808D164
:103A10004FF0E021096941F004014FF0E02211610B
:103A200007E04FF0E021096921F004014FF0E022A6
:103A30001161704702480068401C014908607047E6
:103A40000000002001480249086070470400FA05A0
:103A50000CED00E07CB5322E02DBFEF7C3FB002646
:103A6000AC48007860B9002505E06FF00040AA4935
:103A700041F825006D1C032DF7D30120A5490870DE
:103A8000A6490968A64A1268881A002801DB01467F
:103A900000E041420A2973DD701CC6B2A1490978D1
:103AA0000A2242EA4111C8B2FEF748FD04469CBB17
:103AB0009C490978082242EA4111C8B2FEF73EFD4E
:103AC00050BB9549974A127851F82210934A1268D0
:103AD000501A002801DB014600E04142914A127869
:103AE00002EBC202904B03EB8202526902EB4202EC
:103AF000914241D98B48007800EBC0001A4602EB96
:103B00008000C17A87480078FFF776FD0120874959
:103B1000844A127888542FE0FFE7201E01DB01461B
:103B200000E04142824A7F4B1B7852F83320914299
:103B30000AD27F487B4A127800EBC20001797948AB
:103B40000078FFF759FD0BE07648007800EBC000E5
:103B5000754A02EB8000817A72480078FFF74CFDCD
:103B60006E4800686C496F4A127841F822000021C3
:103B70006E486C4A12788154201E02DB014601E037
:103B8000C7E041426A4A674B1B7852F833209142A2
:103B900011D264480078FDF7E1FC6549614A12786A
:103BA00001EBC201497988421BD100215D480078B0
:103BB000FFF7B0F915E05B480078FDF7CFFC5C49F2
:103BC000584A127801EBC2014979884209D0584815
:103BD000544A127800EBC200417952480078FFF74E
:103BE00099F954484F490978084453494D4A127885
:103BF0001144CDE9001051484A49097800EB81038E
:103C00000022114647480078FEF7EAFB4548007855
:103C100000EBC000444901EB8000C068E0B14148BE
:103C20000078FDF735FEB8B1201E01DB014600E04B
:103C300041423C4A127802EBC2023B4B03EB820248
:103C4000D268914208D937480078FDF7E3FE012099
:103C50003B49344A1278885444B9324909780822D9
:103C600042EA4111C8B2FEF769FC20B135482D493E
:103C70000978405CB0B32B48007800EBC0002A49BB
:103C800001EB8000006920B92E4826490978405C84
:103C900038B32D49234A127851F822101F4A12686E
:103CA000501A002801DB014600E041421D4A12780B
:103CB00002EBC2021C4B03EB8202126902EB82028E
:103CC000B1EB420F16D9214816490978405C40B93A
:103CD00014480078FDF776FA01211C48114A127841
:103CE000815407E0FFE70D48016817480D4A127834
:103CF00040F822100B480078401C0A49087008461A
:103D00000078032801DB002008700448006804499B
:103D100008607CBD10010020180400200000002075
:103D20000C0100200801002038000020B000002015
:103D3000C4000020AA000020A4000020BC03002032
:103D4000A7000020AD00002024040020B3000020C4
:103D500010B51348006840F001001149086008469A
:103D60004068104908400E494860084600680E49FE
:103D700008400B4908600846006820F4802008606D
:103D80000846406820F4FE0048604FF41F00886039
:103D9000FFF73AFC4FF000600449086010BD0000D6
:103DA000001002400000FFF8FFFFF6FE08ED00E003
:103DB000F0B50C46154600220021068C4FF6FE7722
:103DC0003E400684028B018C4FF60C7632407E1CFE
:103DD00006EA03162E433243104EB0420ED0104E68
:103DE000B0420BD0B0F1804F08D00E4EB04205D09B
:103DF0000D4EB04202D00D4EB04206D14FF6FD76C8
:103E0000314044F00106314305E04FF6F57631408C
:103E100044F00106314302830184F0BD002C0140CF
:103E2000003401400004004000080040000C004045
:103E3000F0B50C461546002200210026078C4FF6EF
:103E4000EF7C07EA0C070784028B018C4FF6FF77A3
:103E500007EA041640F6FF473A404FF6FF7707EAB5
:103E600003373A434FF6FF7707EA05273A43114FE6
:103E7000B8420ED0104FB8420BD0B0F1804F08D0EE
:103E80000E4FB84205D00E4FB84202D00D4FB84287
:103E900006D14FF6DF77394046F01007394305E089
:103EA0004FF65F77394044F01007394302830184AD
:103EB000F0BD0000002C014000340140000400402F
:103EC00000080040000C0040F0B50C4615460022EA
:103ED00000210026078C4FF6FF6C07EA0C070784C9
:103EE000828B018C4FF6FF7707EA04264FF60C779A
:103EF0003A404FF6FF7707EA03172F433A43114F33
:103F0000B8420ED0104FB8420BD0B0F1804F08D05D
:103F10000E4FB84205D00E4FB84202D00D4FB842F6
:103F200006D14FF6FF57394046F48077394305E014
:103F30004FF2FF57394044F480773943828301843C
:103F4000F0BD0000002C014000340140000400409E
:103F500000080040000C0040F0B50C461546002259
:103F600000210026078C4EF6FF7C07EA0C07078429
:103F7000828B018C4FF6FF7707EA043640F6FF4745
:103F80003A404FF6FF7707EA05273A434FF6FF77A7
:103F900007EA03373A43114FB8420ED0104FB842E8
:103FA0000BD0B0F1804F08D00E4FB84205D00E4F65
:103FB000B84202D00D4FB84206D14DF6FF773940D6
:103FC00046F48057394305E047F6FF57394044F43B
:103FD0008057394382830184F0BD0000002C0140EA
:103FE000003401400004004000080040000C004084
:103FF00010B501210C4800F0DAF901280FD10A4868
:104000000088C0F300142CB908480078401C074908
:10401000087004E005480078401E0449087001213A
:10402000014800F094F810BD000400402001002079
:1040300000B589B001210846FEF742F801210220AF
:10404000FEF71EF801210820FEF73AF801212F485B
:10405000FDF730FA08A8FDF779FA3020ADF8200016
:1040600004208DF8230003208DF8220008A9284899
:10407000FDF762F901212748FDF71CFA1D208DF894
:10408000040001208DF8050000208DF806000120B5
:104090008DF8070001A8FDF7DBFE1F4800F066F869
:1040A00005A800F07FFA47F23050ADF81800002064
:1040B000ADF81400ADF81A00ADF8160005A91648C1
:1040C00000F01EFA00231A460321134800F042F9BB
:1040D00002A800F0D3F90620ADF8100002A90E489E
:1040E00000F076F901210C4800F02EF8012211466B
:1040F000094800F0CCF9002007492431088001214B
:10410000054800F027F809B000BD000000023000AB
:10411000000C014000081A000004004010B5012105
:10412000084800F044F9012807D10021054800F0B3
:10413000B9F96421034800F0B3F90121014800F006
:1041400006F810BD00080040CA4302827047CA4307
:104150000282704721B1028842F00102028004E02D
:1041600002884FF6FE731A400280704710B504466D
:104170006848844208D10121C014FDF7B1FF002135
:10418000E014FDF7ADFFC4E0B4F1804F08D1012188
:104190000846FDF785FF00210120FDF781FFB8E00B
:1041A0005D48844208D101210220FDF779FF0021FA
:1041B0000220FDF775FFACE05848844208D1012188
:1041C0000420FDF76DFF00210420FDF769FFA0E04A
:1041D0005348844208D101210820FDF761FF0021E6
:1041E0000820FDF75DFF94E04E48844208D101218C
:1041F0001020FDF755FF00211020FDF751FF88E04A
:104200004948844208D101212020FDF749FF0021BF
:104210002020FDF745FF7CE04448844208D101217D
:104220004014FDF75DFF00216014FDF759FF70E0B9
:104230003F48844209D10121C804FDF751FF002104
:104240004FF40020FDF74CFF63E03A48844209D167
:1042500001210805FDF744FF00214FF48010FDF710
:104260003FFF56E03448844209D101214805FDF75B
:1042700037FF00214FF40010FDF732FF49E02F48CF
:10428000844208D101214020FDF70AFF002140208F
:10429000FDF706FF3DE02A48844208D10121802035
:1042A000FDF7FEFE00218020FDF7FAFE31E02548F3
:1042B000844208D101218015FDF7F2FE0021A015EE
:1042C000FDF7EEFE25E02048844209D101210804D3
:1042D000FDF706FF00214FF48030FDF701FF18E0E5
:1042E0001A48844209D101214804FDF7F9FE002152
:1042F0004FF40030FDF7F4FE0BE01548844208D17E
:1043000001218804FDF7ECFE00214FF48020FDF729
:10431000E7FE10BD002C01400004004000080040F2
:10432000000C004000100040001400400034014028
:10433000004C014000500140005401400018004072
:10434000001C0040002000400040014000440140AB
:1043500000480140F0B50C4615461E4600210022DB
:1043600000230189028B038C4FF6F87739402143F3
:104370004FF6FC473A4040F201173A434FF6DD77DB
:104380003B404FF6FF7707EA06172F433B43018177
:1043900002830384F0BD0146888C704702460020EA
:1043A000138A0B400BB1012000E00020704730B5AC
:1043B0000246002000230024158A05EA010395899E
:1043C00005EA010413B10CB1012000E0002030BD6A
:1043D00070B505460C46244885420ED023488542D8
:1043E0000BD0B5F1804F08D02148854205D0214837
:1043F000854202D02048854200D100E000BF2088DD
:1044000050B92389A28861882846FFF7D1FCE1884A
:10441000284600F049F825E0208804280AD123899D
:10442000A28861882846FFF703FDE188284600F04E
:1044300044F817E0208808280AD12389A2886188D7
:104440002846FFF741FDE188284600F043F809E0DF
:104450002389A28861882846FFF77EFDE1882846E7
:1044600000F041F870BD0000002C01400034014014
:104470000004004000080040000C004000210180C2
:104480004180012181800021C180018170471AB1E2
:1044900083890B43838102E083898B438381704747
:1044A0008185704781847047028B4FF6F3731A4001
:1044B0000283028B0A4302837047028B4FF2FF3361
:1044C0001A400283028B4FF6FF7303EA01231A435B
:1044D00002837047828B4FF6F3731A408283828B7C
:1044E0000A4382837047828B4FF2FF331A408283E4
:1044F000828B4FF6FF7303EA01231A4382837047CE
:10450000002202881D4B98420ED01D4B98420BD0C2
:10451000B0F1804F08D01B4B984205D01A4B9842FF
:1045200002D01A4B984204D14FF68F731A404B8831
:104530001A43174B984207D0164B984204D04FF6B7
:10454000FF431A40CB881A4302808B8883850B88EF
:1045500003850A4B98420BD0094B984208D00E4B6A
:10456000984205D00D4B984202D00D4B984201D194
:104570000B7A03860123838270470000002C0140E0
:10458000003401400004004000080040000C0040DE
:104590000010004000140040004001400044014071
:1045A000004801404FF6FF71818000210180C180E9
:1045B000418001727047000008B501210420FDF719
:1045C0007FFD01210846FDF77BFD4FF48070ADF8BB
:1045D000000018208DF8030003208DF802006946C2
:1045E0000348FCF7A9FE0620FDF7F6FD08BD000014
:1045F000000801407FB505460C4601210420FDF767
:104600003FFDADF80850ADF804400020ADF80A00B9
:10461000ADF8060001A90D48FFF772FF0122412104
:104620000A48FFF734FF1E208DF8000003208DF8A4
:1046300001008DF8020001208DF803006846FDF7A7
:1046400007FC01210148FFF785FD7FBD0008004000
:1046500010B540F225511D4800F04AF810B31B4830
:1046600000F002F9C4B21A48008800F40040C8B94A
:104670001748008800F4804060B10A2C03D0002065
:104680001349088020E01248008840F40040104997
:10469000088019E00D2C06D10D48008840F48040B8
:1046A0000B49088010E00A480088C0F30D00094952
:1046B0000C5407480088401C0549088008460088BB
:1046C000C72801DD0020088010BD0000003801402F
:1046D00020000020F402002021B1828942F400521F
:1046E000828104E082894DF6FF731A40828170470F
:1046F00070B50246002400230025002040F66A160B
:10470000B14200D100BFC1F3421501F01F030126E1
:1047100006FA03F3012D02D19689334006E0022DFB
:1047200002D1168A334001E0968A33400C120126EA
:1047300006FA04F41688344013B10CB1012000E0ED
:10474000002070BDF0B5034600240026002500209F
:1047500040F66A17B94200D100BF1846C1F34214AF
:1047600001F01F06012707FA06F5012C01D10C30D4
:1047700004E0022C01D1103000E014301AB10768B7
:104780002F43076002E00768AF430760F0BD0000F9
:104790002DE9F04786B005460E460024A24600BF2C
:1047A000A1460027B08900B100BF2F462C8A4CF6E5
:1047B000FF700440F08804432C82AC894EF6F3105D
:1047C0000440B08831890843718908430443AC81AF
:1047D000AC8A4FF6FF400440B0890443AC8201A884
:1047E000FDF78EFC1F48874202D1DDF810A001E0E2
:1047F000DDF80CA0A88900F4004040B10AEBCA0023
:1048000000EB0A1031684900B0FBF1F807E00AEB51
:10481000CA0000EB0A1031688900B0FBF1F864208F
:10482000B8FBF0F004012009642101FB1089A8897C
:1048300000F4004040B1322000EBC900B0FBF1F0C1
:1048400000F00700044308E0322000EB0910642167
:10485000B0FBF1F000F00F0004432C8106B0BDE87E
:10486000F08700000038014001468888C0F3080046
:104870007047000010B586B0002401AA00210A4844
:10488000FCF792FA00BF05E00DF10F00005D07494B
:104890000855641C082CF7DB0549019808700120B5
:1048A0000449087006B010BD006400400D040020EB
:1048B000F0000020EF00002000BFFEE77CB50546B9
:1048C0000C468DF8045020788DF8050060788DF83E
:1048D0000600A0788DF8070001A96846FDF7E0FE04
:1048E0007CBD2DE9FC4104460D4616461F468DF859
:1048F00004408DF805508DF806608DF8077001A909
:104900006846FDF7CDFEBDE8FC817CB505460C464A
:104910008DF80450200C8DF80500200A8DF8060053
:10492000E0B28DF8070001A96846FDF7B9FE7CBD2D
:104930007CB505460C468DF8045000208DF8050026
:10494000200A8DF80600E0B28DF8070001A968463C
:10495000FDF7A6FE7CBD1CB504468DF80440002082
:104960008DF805008DF806008DF8070001A968464E
:10497000FDF796FE1CBD000010B50446444810F833
:104980003400032803DD0320414901F83400404886
:1049900000EBC4008078032804DD03203C4901EBD0
:1049A000C40188703A4800EBC40000790F2804DD88
:1049B0000F20374901EBC4010871354800EBC400F2
:1049C0004079072804DD0720314901EBC401487113
:1049D0002F4800EBC40080790F2804DD0F202C49FC
:1049E00001EBC401887100202A490860084600686C
:1049F00040F400200860264810F83400096841EAB5
:104A0000C03024490860224800EBC400407820B13F
:104A10000846006840F4804008601D4800EBC40070
:104A2000C07828B11B48006840F40050194908605C
:104A3000174800EBC40080781649096841EAC02095
:104A400014490860124800EBC4000079096841EA83
:104A5000C010104908600E4800EBC4004079096896
:104A600041EA00100B490860094800EBC400C07916
:104A700038B9074800EBC400807909680843054944
:104A800008600448044902682046FDF7E0FD10BDB7
:104A9000C8030020E4000020E000002010B5044618
:104AA0000020304908600846006840F46020086033
:104AB000C4EBC4002C49085C2A49096841EA8030EB
:104AC00028490860C4EBC4002749084440782549B8
:104AD000096841EA003023490860C4EBC400224958
:104AE00008448078012805D11E48006840F48060A1
:104AF0001C490860C4EBC4001B490844C07819492C
:104B0000096841EA002017490860C4EBC40016494F
:104B100008440079012805D11248006840F040009F
:104B200010490860C4EBC4000F49084440790128CB
:104B300005D10C48006840F020000A490860C4EB29
:104B4000C4000949084480790649096841EA00100F
:104B5000044908600846054902682046FDF777FDCC
:104B600010BD0000E4000020F8030020E000002059
:104B70002DE9F04104460F46164601220621022087
:104B8000FDF7E2FD00BF002205210220FDF7DCFD5C
:104B9000012200210220FDF7D7FD00F002000028CD
:104BA000F1D0002202210846FDF7CEFD0022C4F319
:104BB00007210220FDF7C8FDE1B200220220FDF727
:104BC000C3FD002548E0641C04F03F0010B1701ED6
:104BD000A84201D1012000E000200246795D0220B8
:104BE000FDF7B2FD04F03F00A8BB701EA84232D909
:104BF00000BF002205210220FDF7A6FD01220021B1
:104C00000220FDF7A1FD00F001000028F1D10122F2
:104C100006210220FDF798FD00BF00220521022099
:104C2000FDF792FD012200210220FDF78DFD00F02D
:104C300002000028F1D0002202210846FDF784FD81
:104C40000022C4F307210220FDF77EFDE1B200221D
:104C50000220FDF779FD6D1CB542B4D300BF0022E0
:104C600005210220FDF770FD012200210220FDF741
:104C70006BFD00F001000028F1D10120BDE8F081BA
:104C800070B504460E460025012206210220FDF7DC
:104C90005BFD00BF002205210220FDF755FD01222A
:104CA00000210220FDF750FD00F002000028F1D0A5
:104CB000002202210846FDF747FD0022C4F3072128
:104CC0000220FDF741FDE1B200220220FDF73CFD8C
:104CD000012231460220FDF737FD002500BF681C88
:104CE000C5B2FA2D01DB002070BD00220521022093
:104CF000FDF72AFD012200210220FDF725FD00F02D
:104D000001000028EBD1012204210220FDF71CFD47
:104D10000120E9E710B5044604EB84004049085C33
:104D2000012804DD012004EB84013D4A505404EBCA
:104D300084003B4908444078032805DD032004EB48
:104D40008401374A1144487004EB84003449084414
:104D500080780F2805DD0F2004EB8401304A1144D0
:104D6000887004EB84002E490844C078032805DDD0
:104D7000032004EB84012A4A1144C87004EB840028
:104D80002749084400790F2805DD0F2004EB840132
:104D9000234A11440871002022490860084600682F
:104DA00040F42020086004EB84001D49085C1D4984
:104DB000096841EAC0301B49086004EB84001849C7
:104DC000084440781749096841EA403015490860AD
:104DD00004EB84001249084480781249096841EACA
:104DE00000201049086004EB84000D490844C07895
:104DF0000C49096841EA40100A49086004EB840044
:104E000007490844007907490968084305490860CB
:104E10000846054902682046FDF719FC10BD000050
:104E2000E0030020E4000020E000002010B504466C
:104E300004EB44002C49084490F901003F2805DDAB
:104E40003F2004EB4401284A1144487004EB44001D
:104E50002549084490F9010010F13F0F05DAC120FF
:104E600004EB4401204A1144487004EB44001E49FD
:104E7000084480781F2805DD1F2004EB44011A4AEE
:104E8000114488700020194908600846006840F401
:104E90004020086004EB44001349085C012805D158
:104EA0001248006840F480301049086004EB440068
:104EB0000D490844407800F07F000C49096841EA38
:104EC00000200A49086004EB440007490844807840
:104ED000064909680843054908600846044902680C
:104EE0002046FDF7B4FB10BDEF030020E4000020D6
:104EF000E000002010B5044600201B49086004EBC8
:104F000044001A49085C28B11748006840F4007052
:104F10001549086004EB440014490844407828B15E
:104F20001148006840F480700F49086004EB4400A9
:104F30000E49084480780F2805DD0F2004EB44015A
:104F40000A4A1144887004EB4400084908448078F8
:104F5000054909680843044908600846044902688D
:104F60002046FDF774FB10BDE4000020B9000020CE
:104F7000E000002030380A2801D2012070470020CC
:104F80007047014600BF704710B56FF00400FEF790
:104F90003DFD104800681049B0FBF1F00F49087062
:104FA0000C4800680C49B0FBF1F44FF47A704443AC
:104FB00001200B4908804FF0E020006940F002001A
:104FC0004FF0E021086108464461006940F00100AB
:104FD000086110BD0400002000127A0018000020B3
:104FE0001A00002010B504464FF47A7104FB01F05A
:104FF00000F002F810BD000070B5034600224FF02B
:10500000E02675690E4E367803FB06F400BF4FF0BC
:10501000E026B16910E04FF0E026B06988420BD07D
:10502000884202D20E1A324402E02E1A0E44324452
:105030000146A24200D300E0EDE700BF70BD0000D2
:105040001800002000BF054A128802F04002002A22
:10505000F9D0C2B2014B1B1D1A80704700380140C5
:105060000024FFF791FF4FF4A060FCF729FF4FF4F5
:10507000E13000F057F8234800682349B0FBF1F015
:10508000C5B22248416828468847FCF70DFEFCF768
:10509000DFF9FBF73DFCFEF7CBFFFFF78DFAFDF7DD
:1050A0009DFEFBF7C1FDFCF7C9FCFCF76BFD002082
:1050B000FDF7B5FA3C2803D100201549086002E04D
:1050C0000120134908601CE0104908698047FCF77B
:1050D00003FFFEF7BFFC0F480068001BB0F5FA7F26
:1050E0000FD30B48001F0068C0430B49C1F8A8014B
:1050F0000848046800680449884202D9002005492C
:105100000860E1E70400002040420F000002002098
:10511000AC01234200000020000023420146086841
:105120007047000010B586B00446012144F2040027
:10513000FCF7C6FF4FF40070ADF8140003208DF8A3
:10514000160018208DF8170005A91C48FCF7F4F884
:105150004FF48060ADF8140004208DF8170005A905
:105160001648FCF7E9F825208DF8000003208DF89B
:1051700001008DF8020001208DF803006846FCF75D
:1051800067FE01940020ADF80800ADF80A00ADF804
:105190000C00ADF810000C20ADF80E0001A9084875
:1051A000FFF7F6FA012240F225510548FFF7CAFA47
:1051B00001210348FFF790FA06B010BD0008014036
:1051C0000038014030B595B0054613AB12AA09A9C5
:1051D000284600F039FA044614B1204615B030BD17
:1051E0000020149026E0224909689DF8502001EB28
:1051F000C20113AB11AA486801A900F025FA0446C0
:105200000CB12046EAE709A901A800F0BBFC60B98F
:105210009DF844009DF84810884201DD0220DDE73A
:105220009DF85000124988750AE09DF85000401C16
:10523000C0B214900E48007D9DF850108842D2DC18
:1052400000BF0B48007D9DF85010884201D104201A
:10525000C4E714A9284600F0D7FA04460CB120464A
:10526000BCE79DF85000024948750020B6E70000F1
:10527000000200202DE9F0419AB09C48847D007D19
:10528000A04202DC1AB0BDE8F0819849096801EB40
:10529000C40106AB07AA486808A900F0D5F908A917
:1052A00093A0FAF7E5FF002644E09048008B012127
:1052B000B1400840D8B122218FA0FAF7D9FF30467B
:1052C00000F028FB89492431471839468BA0FAF7AA
:1052D000CFFF222188A0FAF7CBFF304600F01AFB5F
:1052E00082492431084410A941F8260018E03046CC
:1052F00000F010FB7D492431085810A941F8260020
:105300007A48C07D30B910A850F826107CA0FAF772
:10531000AFFF05E010A850F826107AA0FAF7A8FF12
:105320009DF81C00401EB04202D078A0FAF7A0FF02
:10533000701CC6B29DF81C008642B6DB74A0FAF75A
:1053400097FF00F039FB6948407D0B280DD2DFE85C
:1053500000F0060D151E27323F4E5F72870063492D
:10536000096851F834008047054690E05F4A1268AA
:1053700052F8341010988847054688E05B4B1B684C
:1053800053F83420DDE91001904705467FE0574F80
:105390003F6857F8343010A807C89847054676E0AC
:1053A000DFF848C1DCF800C05CF8347010A80FC802
:1053B000B84705466BE01498DFF830C10090DCF880
:1053C00000C05CF8347010A80FC8B84705465EE00E
:1053D000DDE91401DFF814C1CDE90001DCF800C0FB
:1053E0005CF8347010A80FC8B84705464FE0DDE9F7
:1053F00014121698DFF8F4C0CDE900120290DCF820
:1054000000C05CF8347010A80FC8B84705463EE0ED
:10541000DDE91423DDE91610DFF8D0C0CDE9002363
:10542000CDE90210DCF800C05CF8347010A80FC899
:10543000B84705462BE0DDE91523DDE91710CDE976
:105440000123CDE903101498DFF8A0C00090DCF828
:1054500000C05CF8347010A80FC8B847054616E0C5
:10546000DDE91623DDE91810CDE90223CDE90410AA
:10547000DDE91401DFF874C0CDE90001DCF800C0FB
:105480005CF8347010A80FC8B847054600BF00BFCD
:1054900000F050FA9DF8180001280CD11348C07D87
:1054A00020B929461BA0FAF7E3FE07E029461BA016
:1054B000FAF7DEFE02E018A0FAF7DAFE0B4890F8E1
:1054C000EC0088B10948D0F8F0000A21B0FBF1F2F5
:1054D00001FB12070548D0F8F000B0FBF1F83A469E
:1054E000414611A0FAF7C4FE00BFCBE6000200203F
:1054F0000D0A2573280000002563000025730000B5
:10550000256C750030582558000000002C00000064
:10551000290000003D256C753B0D0A003D305825E3
:10552000583B0D0A0000000046756E6374696F6E8B
:105530002052756E2054696D653A25642E253164BC
:105540006D730D0A00000000F0B5034615460020FB
:1055500000220026002455E01F782C2F01D104B929
:1055600001221F78292F01D01F780FB904B94AE012
:10557000002E34D11F78302F02DB1F78392F11DD38
:105580001F78612F02DB1F78662F0BDD1F78412FFC
:1055900002DB1F78462F05DD1F78582F02D01F78B9
:1055A000782F0CD102B12EE01F78612F03DB1F781A
:1055B000203F0F7001E01F780F70491C1FE01F781B
:1055C000222F04D102B11EE00126012417E01F782A
:1055D000202F14D01F782C2F11D0FF2613E01F7816
:1055E000222F00D1002402B10DE044B11F785C2FBE
:1055F00002D15B1C471CF8B21F780F70491C471C76
:10560000F8B25B1CA8E700BF00270F702E70F0BD3A
:1056100010B50446002010700BE020780870641C60
:10562000491C1078401C10701078984201DB012052
:1056300010BD2078202802D020780028EDD100204D
:10564000087000BFF4E700002DE9FF4F85B08046E9
:1056500089460027002004900390012002904FF01B
:10566000000B002544461DE02078202816D005F0C8
:105670007F00052812DA0DB945F0800505F07F009E
:10568000042803D120782A2800D00EE0207805F0E5
:105690007F010DF80100681CC5B202E0852D00D124
:1056A00003E0641C20780028DED100BF8DB100200B
:1056B00005F07F010DF8010051A1684600F062FA83
:1056C00018B900210898017002E0012108980170C2
:1056D00000254FF0000A444614E0641C0AF1010062
:1056E00000F0FF0A2078202802D020782A2809D14B
:1056F000204600F0D7F90646282E03D02A2E01D0E6
:10570000CDF810A02078282802D020780028E4D1F5
:105710004446049810B10498401C04444FF0000A19
:10572000002654E0207810B94FF0010A50E02078AC
:10573000282803D116B9781CC7B213E0207829288D
:1057400008D13EB917B1781EC7B201E04FF0010A87
:1057500047B93DE02078222804D10EB9012000E0AD
:105760000020064647B9207820282FD0207889F8D5
:10577000000009F1010929E020782C2804D101203A
:105780000290681CC5B214E02078202811D020783F
:1057900028280ED04DB9BBF1050F06DA20780DF898
:1057A0000B000BF1010000F0FF0B0298401CC0B28F
:1057B0000290012F0AD10298022807D10298401CBA
:1057C000C0B202900398401CC0B20390641CA9E7C9
:1057D00000BF0398012809D100200DF80B0008A193
:1057E000684600F0CFF908B90020039007990398A4
:1057F0000870002089F80000504609B0BDE8F08F1D
:10580000766F6964000000002DE9F043B5B00546ED
:105810000F460024002604E000213D488155701CFD
:10582000C6B20A2EF8DB06E06D1C287818B90120F4
:1058300035B0BDE8F08328782828F5D16D1C61E0EB
:1058400034AA69462846FFF77FFE064635449DF890
:10585000D00020B1012827D0FF284CD149E09DF885
:10586000000000B333A9684600F027F906460EB1E0
:105870000220DDE7204600F04DF825490A31339A31
:105880000A50A1F12400008B0121A1408843204946
:105890001A39088304211E480155601CC4B20A2C21
:1058A00001DD0320C4E726E0684600F087F9401CCC
:1058B00000F0FF08204600F02DF815490A3100EBF2
:1058C00001094946684600F06EF911481A38018B03
:1058D0000120A040014388B20D491A3908830C48C1
:1058E00000F80480601CC4B20A2C01DD03209FE78D
:1058F00001E002209CE700BF2878292801D0287801
:1059000000B900E09CE700BF3C70002090E7000079
:105910001A02002002460020002105E0044B5B5CD7
:105920000344D8B24B1CD9B29142F7DB7047000058
:105930001A02002010B501210D48FEF72FFD0128A5
:1059400008D10C48D0F8F0004FF6FF71084409491F
:10595000C1F8F0000648FEF71EFD0649D1F8F01028
:1059600008440449C1F8F0000846D0F8F00010BD22
:10597000000800400002002010B5044604EBC400FB
:1059800000EB04100122C2EB800081B24FF47A7068
:10599000FEF730FE01200149C87510BD000200204D
:1059A00010B50246012000E050430B00A1F10104B4
:1059B000E1B2F9D110BD000010B501210848FEF791
:1059C000C3FB4FF6FF710648FEF76AFD002104484D
:1059D000FEF768FD00200349C1F8F00010BD00008B
:1059E000000800400002002070B51D48008800F447
:1059F0000040002833D01A4805780020194948553E
:105A0000194881681748884704461CB91649C86870
:105A1000804721E0134800F0DDF80546012D00D055
:105A20002C46CCB1012C06D0022C08D0032C0AD075
:105A3000042C10D10BE00DA0FAF71AFC0BE00EA01D
:105A4000FAF716FC07E00FA0FAF712FC03E010A02B
:105A5000FAF70EFC00BF00BF00200149088070BDAE
:105A600020000020F402002000020020BAAFCAFD8E
:105A7000B4EDCEF3210D0A00B2CECAFDB4EDCEF3E3
:105A8000210D0A00B2CECAFDCCABB6E0210D0A0052
:105A9000CEB4D5D2B5BDC6A5C5E4B5C4BAAFCAFDAE
:105AA000210D0A000146491C00E0491C0878202805
:105AB00001D10029F9D1087870472DE9F043074654
:105AC0000E4600254FF00A083C46002030601FE0DB
:105AD0002078392802DC207830280ADA2078462815
